{
  "address": "0x5FbDB2315678afecb367f032d93F642f64180aa3",
  "abi": [
    {
      "inputs": [
        {
          "internalType": "address",
          "name": "startingAdmin",
          "type": "address"
        }
      ],
      "stateMutability": "nonpayable",
      "type": "constructor"
    },
    {
      "anonymous": false,
      "inputs": [
        {
          "indexed": false,
          "internalType": "address",
          "name": "admin",
          "type": "address"
        },
        {
          "indexed": false,
          "internalType": "address",
          "name": "wallet",
          "type": "address"
        }
      ],
      "name": "AddMember",
      "type": "event"
    },
    {
      "anonymous": false,
      "inputs": [
        {
          "indexed": false,
          "internalType": "uint256",
          "name": "blockNumber",
          "type": "uint256"
        }
      ],
      "name": "NewElection",
      "type": "event"
    },
    {
      "anonymous": false,
      "inputs": [
        {
          "indexed": true,
          "internalType": "bytes32",
          "name": "role",
          "type": "bytes32"
        },
        {
          "indexed": true,
          "internalType": "bytes32",
          "name": "previousAdminRole",
          "type": "bytes32"
        },
        {
          "indexed": true,
          "internalType": "bytes32",
          "name": "newAdminRole",
          "type": "bytes32"
        }
      ],
      "name": "RoleAdminChanged",
      "type": "event"
    },
    {
      "anonymous": false,
      "inputs": [
        {
          "indexed": true,
          "internalType": "bytes32",
          "name": "role",
          "type": "bytes32"
        },
        {
          "indexed": true,
          "internalType": "address",
          "name": "account",
          "type": "address"
        },
        {
          "indexed": true,
          "internalType": "address",
          "name": "sender",
          "type": "address"
        }
      ],
      "name": "RoleGranted",
      "type": "event"
    },
    {
      "anonymous": false,
      "inputs": [
        {
          "indexed": true,
          "internalType": "bytes32",
          "name": "role",
          "type": "bytes32"
        },
        {
          "indexed": true,
          "internalType": "address",
          "name": "account",
          "type": "address"
        },
        {
          "indexed": true,
          "internalType": "address",
          "name": "sender",
          "type": "address"
        }
      ],
      "name": "RoleRevoked",
      "type": "event"
    },
    {
      "anonymous": false,
      "inputs": [
        {
          "indexed": false,
          "internalType": "address",
          "name": "votingAddress",
          "type": "address"
        },
        {
          "indexed": false,
          "internalType": "address",
          "name": "wallet",
          "type": "address"
        },
        {
          "indexed": false,
          "internalType": "uint256",
          "name": "amount",
          "type": "uint256"
        }
      ],
      "name": "Vote",
      "type": "event"
    },
    {
      "stateMutability": "payable",
      "type": "fallback"
    },
    {
      "inputs": [],
      "name": "DEFAULT_ADMIN_ROLE",
      "outputs": [
        {
          "internalType": "bytes32",
          "name": "",
          "type": "bytes32"
        }
      ],
      "stateMutability": "view",
      "type": "function"
    },
    {
      "inputs": [],
      "name": "VOTER_ROLE",
      "outputs": [
        {
          "internalType": "bytes32",
          "name": "",
          "type": "bytes32"
        }
      ],
      "stateMutability": "view",
      "type": "function"
    },
    {
      "inputs": [
        {
          "internalType": "address[]",
          "name": "wallets",
          "type": "address[]"
        },
        {
          "internalType": "uint256",
          "name": "voteAllocation",
          "type": "uint256"
        }
      ],
      "name": "addMembersWithVotes",
      "outputs": [],
      "stateMutability": "nonpayable",
      "type": "function"
    },
    {
      "inputs": [
        {
          "internalType": "address",
          "name": "wallet",
          "type": "address"
        },
        {
          "internalType": "uint256",
          "name": "voteAmount",
          "type": "uint256"
        }
      ],
      "name": "addSingleMemberWithVotes",
      "outputs": [],
      "stateMutability": "nonpayable",
      "type": "function"
    },
    {
      "inputs": [
        {
          "internalType": "address",
          "name": "wallet",
          "type": "address"
        },
        {
          "internalType": "bool",
          "name": "value",
          "type": "bool"
        }
      ],
      "name": "admin",
      "outputs": [],
      "stateMutability": "nonpayable",
      "type": "function"
    },
    {
      "inputs": [],
      "name": "currentElectionStartBlock",
      "outputs": [
        {
          "internalType": "uint256",
          "name": "",
          "type": "uint256"
        }
      ],
      "stateMutability": "view",
      "type": "function"
    },
    {
      "inputs": [],
      "name": "deposit",
      "outputs": [],
      "stateMutability": "payable",
      "type": "function"
    },
    {
      "inputs": [
        {
          "internalType": "bytes32",
          "name": "role",
          "type": "bytes32"
        }
      ],
      "name": "getRoleAdmin",
      "outputs": [
        {
          "internalType": "bytes32",
          "name": "",
          "type": "bytes32"
        }
      ],
      "stateMutability": "view",
      "type": "function"
    },
    {
      "inputs": [
        {
          "internalType": "bytes32",
          "name": "role",
          "type": "bytes32"
        },
        {
          "internalType": "uint256",
          "name": "index",
          "type": "uint256"
        }
      ],
      "name": "getRoleMember",
      "outputs": [
        {
          "internalType": "address",
          "name": "",
          "type": "address"
        }
      ],
      "stateMutability": "view",
      "type": "function"
    },
    {
      "inputs": [
        {
          "internalType": "bytes32",
          "name": "role",
          "type": "bytes32"
        }
      ],
      "name": "getRoleMemberCount",
      "outputs": [
        {
          "internalType": "uint256",
          "name": "",
          "type": "uint256"
        }
      ],
      "stateMutability": "view",
      "type": "function"
    },
    {
      "inputs": [
        {
          "internalType": "address",
          "name": "wallet",
          "type": "address"
        },
        {
          "internalType": "uint256",
          "name": "amount",
          "type": "uint256"
        }
      ],
      "name": "giveVotes",
      "outputs": [],
      "stateMutability": "nonpayable",
      "type": "function"
    },
    {
      "inputs": [
        {
          "internalType": "bytes32",
          "name": "role",
          "type": "bytes32"
        },
        {
          "internalType": "address",
          "name": "account",
          "type": "address"
        }
      ],
      "name": "grantRole",
      "outputs": [],
      "stateMutability": "nonpayable",
      "type": "function"
    },
    {
      "inputs": [
        {
          "internalType": "bytes32",
          "name": "role",
          "type": "bytes32"
        },
        {
          "internalType": "address",
          "name": "account",
          "type": "address"
        }
      ],
      "name": "hasRole",
      "outputs": [
        {
          "internalType": "bool",
          "name": "",
          "type": "bool"
        }
      ],
      "stateMutability": "view",
      "type": "function"
    },
    {
      "inputs": [
        {
          "internalType": "bytes32",
          "name": "role",
          "type": "bytes32"
        },
        {
          "internalType": "address",
          "name": "account",
          "type": "address"
        }
      ],
      "name": "renounceRole",
      "outputs": [],
      "stateMutability": "nonpayable",
      "type": "function"
    },
    {
      "inputs": [
        {
          "internalType": "bytes32",
          "name": "role",
          "type": "bytes32"
        },
        {
          "internalType": "address",
          "name": "account",
          "type": "address"
        }
      ],
      "name": "revokeRole",
      "outputs": [],
      "stateMutability": "nonpayable",
      "type": "function"
    },
    {
      "inputs": [
        {
          "internalType": "address[]",
          "name": "users",
          "type": "address[]"
        },
        {
          "internalType": "uint256[]",
          "name": "shares",
          "type": "uint256[]"
        }
      ],
      "name": "shareETH",
      "outputs": [],
      "stateMutability": "nonpayable",
      "type": "function"
    },
    {
      "inputs": [
        {
          "internalType": "address[]",
          "name": "users",
          "type": "address[]"
        },
        {
          "internalType": "uint256[]",
          "name": "shares",
          "type": "uint256[]"
        }
      ],
      "name": "sharePayedETH",
      "outputs": [],
      "stateMutability": "payable",
      "type": "function"
    },
    {
      "inputs": [
        {
          "internalType": "address[]",
          "name": "users",
          "type": "address[]"
        },
        {
          "internalType": "uint256[]",
          "name": "shares",
          "type": "uint256[]"
        },
        {
          "internalType": "contract IERC20",
          "name": "token",
          "type": "address"
        },
        {
          "internalType": "address",
          "name": "spender",
          "type": "address"
        }
      ],
      "name": "sharePayedToken",
      "outputs": [],
      "stateMutability": "nonpayable",
      "type": "function"
    },
    {
      "inputs": [
        {
          "internalType": "address[]",
          "name": "users",
          "type": "address[]"
        },
        {
          "internalType": "uint256[]",
          "name": "shares",
          "type": "uint256[]"
        },
        {
          "internalType": "contract IERC20",
          "name": "token",
          "type": "address"
        }
      ],
      "name": "shareToken",
      "outputs": [],
      "stateMutability": "nonpayable",
      "type": "function"
    },
    {
      "inputs": [
        {
          "internalType": "address[]",
          "name": "wallets",
          "type": "address[]"
        },
        {
          "internalType": "uint256[]",
          "name": "amounts",
          "type": "uint256[]"
        }
      ],
      "name": "voteMultiple",
      "outputs": [],
      "stateMutability": "nonpayable",
      "type": "function"
    },
    {
      "inputs": [
        {
          "internalType": "address",
          "name": "",
          "type": "address"
        }
      ],
      "name": "votes",
      "outputs": [
        {
          "internalType": "uint256",
          "name": "",
          "type": "uint256"
        }
      ],
      "stateMutability": "view",
      "type": "function"
    },
    {
      "stateMutability": "payable",
      "type": "receive"
    }
  ],
  "transactionHash": "0x6b70f8efb7bc8300ac57c3a9eee7388b8c7039d19992c72b9061f4e88715d661",
  "args": [
    "0x210A2F92A94F31d2c5a377018d9d24A1EB2EBCB9"
  ],
  "solcInputHash": "402651302e8d1b6ee2d974f482a1ea79",
  "bytecode": "0x60806040523480156200001157600080fd5b5060405162001cd238038062001cd28339810160408190526200003491620001a3565b6200004a6000826001600160e01b036200006b16565b620000606000336001600160e01b036200006b16565b5043600255620001d3565b6200008082826001600160e01b036200008416565b5050565b600082815260208181526040909120620000a99183906200115662000106821b17901c565b156200008057620000c26001600160e01b036200012f16565b6001600160a01b0316816001600160a01b0316837f2f8788117e7eff1d82e926ec794901d17c78024a50270940304540a733656f0d60405160405180910390a45050565b600062000126836001600160a01b0384166001600160e01b036200013316565b90505b92915050565b3390565b60006200014a83836001600160e01b036200018b16565b620001825750815460018181018455600084815260208082209093018490558454848252828601909352604090209190915562000129565b50600062000129565b60009081526001919091016020526040902054151590565b600060208284031215620001b5578081fd5b81516001600160a01b0381168114620001cc578182fd5b9392505050565b611aef80620001e36000396000f3fe60806040526004361061012e5760003560e01c80639010d07c116100ab578063c15595a11161006f578063c15595a114610319578063ca15c87314610339578063d0e30db014610359578063d547741f14610361578063d8bff5a514610381578063f7f49794146103a157610135565b80639010d07c1461028257806391d14854146102af578063a217fddf146102dc578063a94015c8146102f1578063c0786f691461030657610135565b806336568abe116100f257806336568abe146101ed57806341aa13c51461020d57806353262c51146102225780635486b53a14610242578063603adf091461026257610135565b80631861395c146101375780632017eaf014610157578063248a9ca3146101775780632a5cc062146101ad5780632f2ff15d146101cd57610135565b3661013557005b005b34801561014357600080fd5b506101356101523660046114a6565b6103c1565b34801561016357600080fd5b5061013561017236600461141a565b6104a9565b34801561018357600080fd5b50610197610192366004611600565b6104f2565b6040516101a49190611704565b60405180910390f35b3480156101b957600080fd5b506101356101c836600461151b565b610507565b3480156101d957600080fd5b506101356101e8366004611618565b6105b5565b3480156101f957600080fd5b50610135610208366004611618565b6105fd565b34801561021957600080fd5b5061019761063f565b34801561022e57600080fd5b5061013561023d366004611445565b610645565b34801561024e57600080fd5b5061013561025d366004611445565b6106e8565b34801561026e57600080fd5b5061013561027d3660046113e2565b610793565b34801561028e57600080fd5b506102a261029d36600461163c565b6107db565b6040516101a4919061168e565b3480156102bb57600080fd5b506102cf6102ca366004611618565b610802565b6040516101a491906116f9565b3480156102e857600080fd5b50610197610820565b3480156102fd57600080fd5b50610197610825565b610135610314366004611445565b61083c565b34801561032557600080fd5b5061013561033436600461141a565b6108a4565b34801561034557600080fd5b50610197610354366004611600565b610941565b610135610958565b34801561036d57600080fd5b5061013561037c366004611618565b61095a565b34801561038d57600080fd5b5061019761039c3660046113c6565b610994565b3480156103ad57600080fd5b506101356103bc3660046115a1565b6109a6565b6103cc600033610802565b6103f15760405162461bcd60e51b81526004016103e8906117d5565b60405180910390fd5b806103fd8484846109fe565b600061041b60405161040e90611675565b6040518091039020610941565b905060005b818110156104655761045d60405161043790611675565b604051809103902061037c60405161044e90611675565b604051809103902060006107db565b600101610420565b504360028190556040517f7b1e5a99cfb3a21a53448619825447934102f54788cc32f6d17de36564e30a709161049a91611704565b60405180910390a15050505050565b6104b4600033610802565b6104d05760405162461bcd60e51b81526004016103e8906117d5565b6001600160a01b03909116600090815260016020526040902080549091019055565b60009081526020819052604090206002015490565b610512600033610802565b61052e5760405162461bcd60e51b81526004016103e8906117d5565b8161053b85858585610b13565b600061054c60405161040e90611675565b905060005b818110156105705761056860405161043790611675565b600101610551565b504360028190556040517f7b1e5a99cfb3a21a53448619825447934102f54788cc32f6d17de36564e30a70916105a591611704565b60405180910390a1505050505050565b6000828152602081905260409020600201546105d3906102ca610c63565b6105ef5760405162461bcd60e51b81526004016103e89061174f565b6105f98282610c67565b5050565b610605610c63565b6001600160a01b0316816001600160a01b0316146106355760405162461bcd60e51b81526004016103e8906119a0565b6105f98282610cd6565b60025481565b61066260405161065490611675565b604051809103902033610802565b61067e5760405162461bcd60e51b81526004016103e890611907565b805182511461069f5760405162461bcd60e51b81526004016103e89061197c565b60005b82518110156106e3576106db8382815181106106ba57fe5b60200260200101518383815181106106ce57fe5b6020026020010151610d45565b6001016106a2565b505050565b6106f3600033610802565b61070f5760405162461bcd60e51b81526004016103e8906117d5565b600061071b8383610dbc565b600061072c60405161040e90611675565b905060005b818110156107505761074860405161043790611675565b600101610731565b504360028190556040517f7b1e5a99cfb3a21a53448619825447934102f54788cc32f6d17de36564e30a709161078591611704565b60405180910390a150505050565b61079e600033610802565b6107ba5760405162461bcd60e51b81526004016103e8906117d5565b80156107d0576107cb6000836105b5565b6105f9565b6105f960008361095a565b60008281526020819052604081206107f9908363ffffffff610e3e16565b90505b92915050565b60008281526020819052604081206107f9908363ffffffff610e4a16565b600081565b60405161083190611675565b604051809103902081565b610847600033610802565b6108635760405162461bcd60e51b81526004016103e8906117d5565b600061086f8383610e5f565b600061088060405161040e90611675565b905060005b818110156107505761089c60405161043790611675565b600101610885565b6108af600033610802565b6108cb5760405162461bcd60e51b81526004016103e8906117d5565b6001600160a01b0382166000908152600160205260409081902082905551610904906108f690611675565b6040518091039020836105b5565b7f7ef619bd6be65b04d1a09552b76aafa94f08d0b2f42d743ab897b2c02997d11933836040516109359291906116a2565b60405180910390a15050565b60008181526020819052604081206107fc90610eaa565b565b600082815260208190526040902060020154610978906102ca610c63565b6106355760405162461bcd60e51b81526004016103e8906117f8565b60016020526000908152604090205481565b6109b1600033610802565b6109cd5760405162461bcd60e51b81526004016103e8906117d5565b60005b82518110156106e3576109f68382815181106109e857fe5b6020026020010151836108a4565b6001016109d0565b82828051825114610a215760405162461bcd60e51b81526004016103e8906118d0565b6040516370a0823160e01b815284906001600160a01b038516906370a0823190610a4f90309060040161168e565b60206040518083038186803b158015610a6757600080fd5b505afa158015610a7b573d6000803e3d6000fd5b505050506040513d601f19601f82011682018060405250810190610a9f919061165d565b6000805b8351811015610adc57610ad2848281518110610abb57fe5b602002602001015183610eb590919063ffffffff16565b9150600101610aa3565b5080821015610afd5760405162461bcd60e51b81526004016103e890611899565b610b0988888830610eda565b5050505050505050565b83838051825114610b365760405162461bcd60e51b81526004016103e8906118d0565b6040516370a0823160e01b815285906001600160a01b038616906370a0823190610b6490879060040161168e565b60206040518083038186803b158015610b7c57600080fd5b505afa158015610b90573d6000803e3d6000fd5b505050506040513d601f19601f82011682018060405250810190610bb4919061165d565b6000805b8351811015610bda57610bd0848281518110610abb57fe5b9150600101610bb8565b5080821015610bfb5760405162461bcd60e51b81526004016103e890611899565b6001600160a01b0386163314610c235760405162461bcd60e51b81526004016103e890611848565b6001600160a01b038616301415610c4c5760405162461bcd60e51b81526004016103e8906119ef565b610c5889898989610eda565b505050505050505050565b3390565b6000828152602081905260409020610c85908263ffffffff61115616565b156105f957610c92610c63565b6001600160a01b0316816001600160a01b0316837f2f8788117e7eff1d82e926ec794901d17c78024a50270940304540a733656f0d60405160405180910390a45050565b6000828152602081905260409020610cf4908263ffffffff61116b16565b156105f957610d01610c63565b6001600160a01b0316816001600160a01b0316837ff6391f5c32d9c69d2a47ea670b442974b53935d1edc7fd64eb21e047a839171b60405160405180910390a45050565b33600090815260016020526040902054811115610d745760405162461bcd60e51b81526004016103e89061194d565b336000818152600160205260409081902080548490039055517f66a9138482c99e9baf08860110ef332cc0c23b4a199a53593d8db0fc8f96fbfc9161093591859085906116bc565b81818051825114610ddf5760405162461bcd60e51b81526004016103e8906118d0565b82476000805b8351811015610e0757610dfd848281518110610abb57fe5b9150600101610de5565b5080821015610e285760405162461bcd60e51b81526004016103e890611899565b610e358787600080610eda565b50505050505050565b60006107f98383611180565b60006107f9836001600160a01b0384166111c5565b81818051825114610e825760405162461bcd60e51b81526004016103e8906118d0565b82346000805b8351811015610e0757610ea0848281518110610abb57fe5b9150600101610e88565b60006107fc826111dd565b6000828201838110156107f95760405162461bcd60e51b81526004016103e89061179e565b60006001600160a01b03831615801590610efc57506001600160a01b03821615155b9050306001600160a01b0383161460005b8651811015610e355760006001600160a01b0316878281518110610f2d57fe5b60200260200101516001600160a01b031614158015610f5f57506000868281518110610f5557fe5b6020026020010151115b1561114e5782156110cb57811561101c57846001600160a01b031663a9059cbb888381518110610f8b57fe5b6020026020010151888481518110610f9f57fe5b60200260200101516040518363ffffffff1660e01b8152600401610fc49291906116e0565b602060405180830381600087803b158015610fde57600080fd5b505af1158015610ff2573d6000803e3d6000fd5b505050506040513d601f19601f8201168201806040525081019061101691906115e4565b506110c6565b846001600160a01b03166323b872dd8589848151811061103857fe5b602002602001015189858151811061104c57fe5b60200260200101516040518463ffffffff1660e01b8152600401611072939291906116bc565b602060405180830381600087803b15801561108c57600080fd5b505af11580156110a0573d6000803e3d6000fd5b505050506040513d601f19601f820116820180604052508101906110c491906115e4565b505b61114e565b8681815181106110d757fe5b60200260200101516001600160a01b03168682815181106110f457fe5b60200260200101516040516111089061168b565b60006040518083038185875af1925050503d8060008114611145576040519150601f19603f3d011682016040523d82523d6000602084013e61114a565b606091505b5050505b600101610f0d565b60006107f9836001600160a01b0384166111e1565b60006107f9836001600160a01b03841661122b565b815460009082106111a35760405162461bcd60e51b81526004016103e89061170d565b8260000182815481106111b257fe5b9060005260206000200154905092915050565b60009081526001919091016020526040902054151590565b5490565b60006111ed83836111c5565b611223575081546001818101845560008481526020808220909301849055845484825282860190935260409020919091556107fc565b5060006107fc565b600081815260018301602052604081205480156112e7578354600019808301919081019060009087908390811061125e57fe5b906000526020600020015490508087600001848154811061127b57fe5b6000918252602080832090910192909255828152600189810190925260409020908401905586548790806112ab57fe5b600190038181906000526020600020016000905590558660010160008781526020019081526020016000206000905560019450505050506107fc565b60009150506107fc565b600082601f830112611301578081fd5b813561131461130f82611a73565b611a4c565b81815291506020808301908481018184028601820187101561133557600080fd5b60005b8481101561135d57813561134b81611a93565b84529282019290820190600101611338565b505050505092915050565b600082601f830112611378578081fd5b813561138661130f82611a73565b8181529150602080830190848101818402860182018710156113a757600080fd5b60005b8481101561135d578135845292820192908201906001016113aa565b6000602082840312156113d7578081fd5b81356107f981611a93565b600080604083850312156113f4578081fd5b82356113ff81611a93565b9150602083013561140f81611aab565b809150509250929050565b6000806040838503121561142c578182fd5b823561143781611a93565b946020939093013593505050565b60008060408385031215611457578182fd5b823567ffffffffffffffff8082111561146e578384fd5b61147a868387016112f1565b9350602085013591508082111561148f578283fd5b5061149c85828601611368565b9150509250929050565b6000806000606084860312156114ba578081fd5b833567ffffffffffffffff808211156114d1578283fd5b6114dd878388016112f1565b945060208601359150808211156114f2578283fd5b506114ff86828701611368565b925050604084013561151081611a93565b809150509250925092565b60008060008060808587031215611530578081fd5b843567ffffffffffffffff80821115611547578283fd5b611553888389016112f1565b95506020870135915080821115611568578283fd5b5061157587828801611368565b935050604085013561158681611a93565b9150606085013561159681611a93565b939692955090935050565b600080604083850312156115b3578182fd5b823567ffffffffffffffff8111156115c9578283fd5b6115d5858286016112f1565b95602094909401359450505050565b6000602082840312156115f5578081fd5b81516107f981611aab565b600060208284031215611611578081fd5b5035919050565b6000806040838503121561162a578182fd5b82359150602083013561140f81611a93565b6000806040838503121561164e578182fd5b50508035926020909101359150565b60006020828403121561166e578081fd5b5051919050565b69564f5445525f524f4c4560b01b8152600a0190565b90565b6001600160a01b0391909116815260200190565b6001600160a01b0392831681529116602082015260400190565b6001600160a01b039384168152919092166020820152604081019190915260600190565b6001600160a01b03929092168252602082015260400190565b901515815260200190565b90815260200190565b60208082526022908201527f456e756d657261626c655365743a20696e646578206f7574206f6620626f756e604082015261647360f01b606082015260800190565b6020808252602f908201527f416363657373436f6e74726f6c3a2073656e646572206d75737420626520616e60408201526e0818591b5a5b881d1bc819dc985b9d608a1b606082015260800190565b6020808252601b908201527f536166654d6174683a206164646974696f6e206f766572666c6f770000000000604082015260600190565b6020808252600990820152682727aa1020a226a4a760b91b604082015260600190565b60208082526030908201527f416363657373436f6e74726f6c3a2073656e646572206d75737420626520616e60408201526f2061646d696e20746f207265766f6b6560801b606082015260800190565b60208082526031908201527f596f752063616e2774206469737472696275746520736f6d656f6e6520656c7360408201527065277320746f6b656e2062616c616e636560781b606082015260800190565b6020808252601f908201527f4e6f7420656e6f7567682065746820666f7220646973747269627574696f6e00604082015260600190565b6020808252601c908201527f496e636f727265637420646973747269627574696f6e20726174696f00000000604082015260600190565b60208082526026908201527f596f7520646f6e2774206861766520746865207065726d697373696f6e20746f604082015265103b37ba329760d11b606082015260800190565b602080825260159082015274139bdd08195b9bdd59da081d9bdd195cc81b19599d605a1b604082015260600190565b6020808252600a908201526957726f6e672073697a6560b01b604082015260600190565b6020808252602f908201527f416363657373436f6e74726f6c3a2063616e206f6e6c792072656e6f756e636560408201526e103937b632b9903337b91039b2b63360891b606082015260800190565b6020808252603b908201527f557365206f74686572207368617265546f6b656e206d6574686f6420666f722060408201527f636f6e747261637420746f6b656e20646973747269627574696f6e0000000000606082015260800190565b60405181810167ffffffffffffffff81118282101715611a6b57600080fd5b604052919050565b600067ffffffffffffffff821115611a89578081fd5b5060209081020190565b6001600160a01b0381168114611aa857600080fd5b50565b8015158114611aa857600080fdfea264697066735822122063a4c668bc2e1626511e0e2e0667a00de9a8a708c16382df8fa14e9388d6b49f64736f6c63430006070033",
  "devdoc": {
    "methods": {
      "getRoleAdmin(bytes32)": {
        "details": "Returns the admin role that controls `role`. See {grantRole} and {revokeRole}.     * To change a role's admin, use {_setRoleAdmin}."
      },
      "getRoleMember(bytes32,uint256)": {
        "details": "Returns one of the accounts that have `role`. `index` must be a value between 0 and {getRoleMemberCount}, non-inclusive.     * Role bearers are not sorted in any particular way, and their ordering may change at any point.     * WARNING: When using {getRoleMember} and {getRoleMemberCount}, make sure you perform all queries on the same block. See the following https://forum.openzeppelin.com/t/iterating-over-elements-on-enumerableset-in-openzeppelin-contracts/2296[forum post] for more information."
      },
      "getRoleMemberCount(bytes32)": {
        "details": "Returns the number of accounts that have `role`. Can be used together with {getRoleMember} to enumerate all bearers of a role."
      },
      "grantRole(bytes32,address)": {
        "details": "Grants `role` to `account`.     * If `account` had not been already granted `role`, emits a {RoleGranted} event.     * Requirements:     * - the caller must have ``role``'s admin role."
      },
      "hasRole(bytes32,address)": {
        "details": "Returns `true` if `account` has been granted `role`."
      },
      "renounceRole(bytes32,address)": {
        "details": "Revokes `role` from the calling account.     * Roles are often managed via {grantRole} and {revokeRole}: this function's purpose is to provide a mechanism for accounts to lose their privileges if they are compromised (such as when a trusted device is misplaced).     * If the calling account had been granted `role`, emits a {RoleRevoked} event.     * Requirements:     * - the caller must be `account`."
      },
      "revokeRole(bytes32,address)": {
        "details": "Revokes `role` from `account`.     * If `account` had been granted `role`, emits a {RoleRevoked} event.     * Requirements:     * - the caller must have ``role``'s admin role."
      }
    }
  },
  "userdoc": {
    "methods": {}
  },
  "storageLayout": {
    "storage": [
      {
        "astId": 22,
        "contract": "contracts/QuadraticDiplomacyContract.sol:QuadraticDiplomacyContract",
        "label": "_roles",
        "offset": 0,
        "slot": "0",
        "type": "t_mapping(t_bytes32,t_struct(RoleData)18_storage)"
      },
      {
        "astId": 1902,
        "contract": "contracts/QuadraticDiplomacyContract.sol:QuadraticDiplomacyContract",
        "label": "votes",
        "offset": 0,
        "slot": "1",
        "type": "t_mapping(t_address,t_uint256)"
      },
      {
        "astId": 1904,
        "contract": "contracts/QuadraticDiplomacyContract.sol:QuadraticDiplomacyContract",
        "label": "currentElectionStartBlock",
        "offset": 0,
        "slot": "2",
        "type": "t_uint256"
      }
    ],
    "types": {
      "t_address": {
        "encoding": "inplace",
        "label": "address",
        "numberOfBytes": "20"
      },
      "t_array(t_bytes32)dyn_storage": {
        "base": "t_bytes32",
        "encoding": "dynamic_array",
        "label": "bytes32[]",
        "numberOfBytes": "32"
      },
      "t_bytes32": {
        "encoding": "inplace",
        "label": "bytes32",
        "numberOfBytes": "32"
      },
      "t_mapping(t_address,t_uint256)": {
        "encoding": "mapping",
        "key": "t_address",
        "label": "mapping(address => uint256)",
        "numberOfBytes": "32",
        "value": "t_uint256"
      },
      "t_mapping(t_bytes32,t_struct(RoleData)18_storage)": {
        "encoding": "mapping",
        "key": "t_bytes32",
        "label": "mapping(bytes32 => struct AccessControl.RoleData)",
        "numberOfBytes": "32",
        "value": "t_struct(RoleData)18_storage"
      },
      "t_mapping(t_bytes32,t_uint256)": {
        "encoding": "mapping",
        "key": "t_bytes32",
        "label": "mapping(bytes32 => uint256)",
        "numberOfBytes": "32",
        "value": "t_uint256"
      },
      "t_struct(AddressSet)1310_storage": {
        "encoding": "inplace",
        "label": "struct EnumerableSet.AddressSet",
        "members": [
          {
            "astId": 1309,
            "contract": "contracts/QuadraticDiplomacyContract.sol:QuadraticDiplomacyContract",
            "label": "_inner",
            "offset": 0,
            "slot": "0",
            "type": "t_struct(Set)1045_storage"
          }
        ],
        "numberOfBytes": "64"
      },
      "t_struct(RoleData)18_storage": {
        "encoding": "inplace",
        "label": "struct AccessControl.RoleData",
        "members": [
          {
            "astId": 15,
            "contract": "contracts/QuadraticDiplomacyContract.sol:QuadraticDiplomacyContract",
            "label": "members",
            "offset": 0,
            "slot": "0",
            "type": "t_struct(AddressSet)1310_storage"
          },
          {
            "astId": 17,
            "contract": "contracts/QuadraticDiplomacyContract.sol:QuadraticDiplomacyContract",
            "label": "adminRole",
            "offset": 0,
            "slot": "2",
            "type": "t_bytes32"
          }
        ],
        "numberOfBytes": "96"
      },
      "t_struct(Set)1045_storage": {
        "encoding": "inplace",
        "label": "struct EnumerableSet.Set",
        "members": [
          {
            "astId": 1040,
            "contract": "contracts/QuadraticDiplomacyContract.sol:QuadraticDiplomacyContract",
            "label": "_values",
            "offset": 0,
            "slot": "0",
            "type": "t_array(t_bytes32)dyn_storage"
          },
          {
            "astId": 1044,
            "contract": "contracts/QuadraticDiplomacyContract.sol:QuadraticDiplomacyContract",
            "label": "_indexes",
            "offset": 0,
            "slot": "1",
            "type": "t_mapping(t_bytes32,t_uint256)"
          }
        ],
        "numberOfBytes": "64"
      },
      "t_uint256": {
        "encoding": "inplace",
        "label": "uint256",
        "numberOfBytes": "32"
      }
    }
  }
}